NTDOMAIN\SQL Admins                                                                                                              0x010500000000000515000000586BB3028F0BDA6CF921F7627A0D0000                                                                                                                   sysadmin                                                                                                                         CONNECT SQL                                                                                                                     
NTDOMAIN\svc_sqldbengine                                                                                                         0x010500000000000515000000586BB3028F0BDA6CF921F76205E50000                                                                                                                   NULL                                                                                                                             CONNECT SQL                                                                                                                     
NTDOMAIN\svc_sqldbengine                                                                                                         0x010500000000000515000000586BB3028F0BDA6CF921F76205E50000                                                                                                                   NULL                                                                                                                             CONNECT                                                                                                                         
NTDOMAIN\thepulse.prod.cardio                                                                                                    0x010500000000000515000000586BB3028F0BDA6CF921F76250AC0000                                                                                                                   processadmin                                                                                                                     ALTER TRACE                                                                                                                     
NTDOMAIN\thepulse.prod.cardio                                                                                                    0x010500000000000515000000586BB3028F0BDA6CF921F76250AC0000                                                                                                                   processadmin                                                                                                                     CONNECT SQL                                                                                                                     
TempCardioLogRead                                                                                                                0xC264553FF05B18488A8DB1EABB788EC5                                                                                                                                           NULL                                                                                                                             CONNECT SQL                                                                                                                     
