CDUser                                                                                                                           0x90945FA68EA5E547ADA06ADAAF0E5ED4                                                                                                                                           NULL                                                                                                                             CONNECT SQL                                                                                                                     
NTDOMAIN\CMSUser                                                                                                                 0x010500000000000515000000586BB3028F0BDA6CF921F762A3940000                                                                                                                   NULL                                                                                                                             CONNECT SQL                                                                                                                     
NTDOMAIN\cmsuser_prod                                                                                                            0x010500000000000515000000586BB3028F0BDA6CF921F762CBB60000                                                                                                                   NULL                                                                                                                             CONNECT SQL                                                                                                                     
NTDOMAIN\EBS-DB-READ-PROD                                                                                                        0x010500000000000515000000586BB3028F0BDA6CF921F762EEB60000                                                                                                                   NULL                                                                                                                             CONNECT SQL                                                                                                                     
NTDOMAIN\GCT                                                                                                                     0x010500000000000515000000586BB3028F0BDA6CF921F76222060000                                                                                                                   NULL                                                                                                                             CONNECT SQL                                                                                                                     
NTDOMAIN\HPVDOTNET1$                                                                                                             0x010500000000000515000000586BB3028F0BDA6CF921F762B7A30000                                                                                                                   NULL                                                                                                                             CONNECT SQL                                                                                                                     
NTDOMAIN\HPVDOTNET2$                                                                                                             0x010500000000000515000000586BB3028F0BDA6CF921F762B8A30000                                                                                                                   NULL                                                                                                                             CONNECT SQL                                                                                                                     
NTDOMAIN\MYHBF-DB-READ-PROD                                                                                                      0x010500000000000515000000586BB3028F0BDA6CF921F76291C40000                                                                                                                   NULL                                                                                                                             CONNECT SQL                                                                                                                     
NTDOMAIN\SQL Admins                                                                                                              0x010500000000000515000000586BB3028F0BDA6CF921F7627A0D0000                                                                                                                   sysadmin                                                                                                                         CONNECT SQL                                                                                                                     
NTDOMAIN\svc_ClaimSub_WebPROD                                                                                                    0x010500000000000515000000586BB3028F0BDA6CF921F7622CF00000                                                                                                                   NULL                                                                                                                             CONNECT SQL                                                                                                                     
NTDOMAIN\svc_ClaimSub_WrkPROD                                                                                                    0x010500000000000515000000586BB3028F0BDA6CF921F7622AF00000                                                                                                                   NULL                                                                                                                             CONNECT SQL                                                                                                                     
NTDOMAIN\svc_ebsapp                                                                                                              0x010500000000000515000000586BB3028F0BDA6CF921F7624EA00000                                                                                                                   NULL                                                                                                                             CONNECT SQL                                                                                                                     
NTDOMAIN\svc_ebsweb                                                                                                              0x010500000000000515000000586BB3028F0BDA6CF921F76250A00000                                                                                                                   NULL                                                                                                                             CONNECT SQL                                                                                                                     
NTDOMAIN\svc_Hios                                                                                                                0x010500000000000515000000586BB3028F0BDA6CF921F762E0F20000                                                                                                                   NULL                                                                                                                             CONNECT SQL                                                                                                                     
NTDOMAIN\svc_MassTransit                                                                                                         0x010500000000000515000000586BB3028F0BDA6CF921F76223F40000                                                                                                                   NULL                                                                                                                             CONNECT SQL                                                                                                                     
NTDOMAIN\svc_Pricing                                                                                                             0x010500000000000515000000586BB3028F0BDA6CF921F762BCF80000                                                                                                                   NULL                                                                                                                             CONNECT SQL                                                                                                                     
NTDOMAIN\svc_sqldbengine                                                                                                         0x010500000000000515000000586BB3028F0BDA6CF921F76205E50000                                                                                                                   NULL                                                                                                                             CONNECT SQL                                                                                                                     
NTDOMAIN\svc_sqldbengine                                                                                                         0x010500000000000515000000586BB3028F0BDA6CF921F76205E50000                                                                                                                   NULL                                                                                                                             CONNECT                                                                                                                         
NTDOMAIN\svc_webcacheapi                                                                                                         0x010500000000000515000000586BB3028F0BDA6CF921F76250E30000                                                                                                                   NULL                                                                                                                             CONNECT SQL                                                                                                                     
NTDOMAIN\svc_webcachesvc                                                                                                         0x010500000000000515000000586BB3028F0BDA6CF921F76251E30000                                                                                                                   NULL                                                                                                                             CONNECT SQL                                                                                                                     
NTDOMAIN\WEB_DEVL                                                                                                                0x010500000000000515000000586BB3028F0BDA6CF921F7623A1C0000                                                                                                                   NULL                                                                                                                             CONNECT SQL                                                                                                                     
svc_ebsdmz                                                                                                                       0xF8702B10B8B2CC45B1A1170ACEB35926                                                                                                                                           NULL                                                                                                                             CONNECT SQL                                                                                                                     
svc_ebstib_prod                                                                                                                  0x4386FB6FAF9D25448F264BFA720D8BC0                                                                                                                                           NULL                                                                                                                             CONNECT SQL                                                                                                                     
svc_HBFClaiming_Read                                                                                                             0x0A621A61FEE6E843A2E71320B7FBCEEF                                                                                                                                           NULL                                                                                                                             CONNECT SQL                                                                                                                     
svc_MyHBFLogs_prod                                                                                                               0x51299B53E79C30448FB77AAC2628248C                                                                                                                                           NULL                                                                                                                             CONNECT SQL                                                                                                                     
