NTDOMAIN\Digital_Workplace_Admins                                                                                                0x010500000000000515000000586BB3028F0BDA6CF921F76273930000                                                                                                                   sysadmin                                                                                                                         CONNECT SQL                                                                                                                     
NTDOMAIN\HPVSP16APP1$                                                                                                            0x010500000000000515000000586BB3028F0BDA6CF921F762E3F50000                                                                                                                   NULL                                                                                                                             CONNECT SQL                                                                                                                     
NTDOMAIN\HPVSP16APP2$                                                                                                            0x010500000000000515000000586BB3028F0BDA6CF921F76258FA0000                                                                                                                   NULL                                                                                                                             CONNECT SQL                                                                                                                     
NTDOMAIN\HPVSP16CACHE1$                                                                                                          0x010500000000000515000000586BB3028F0BDA6CF921F76200FD0000                                                                                                                   NULL                                                                                                                             CONNECT SQL                                                                                                                     
NTDOMAIN\HPVSP16CACHE2$                                                                                                          0x010500000000000515000000586BB3028F0BDA6CF921F76238F70000                                                                                                                   NULL                                                                                                                             CONNECT SQL                                                                                                                     
NTDOMAIN\HPVSP16CACHE3$                                                                                                          0x010500000000000515000000586BB3028F0BDA6CF921F7622CF60000                                                                                                                   NULL                                                                                                                             CONNECT SQL                                                                                                                     
NTDOMAIN\HPVSP16CUS1$                                                                                                            0x010500000000000515000000586BB3028F0BDA6CF921F76259FA0000                                                                                                                   NULL                                                                                                                             CONNECT SQL                                                                                                                     
NTDOMAIN\HPVSP16CUS2$                                                                                                            0x010500000000000515000000586BB3028F0BDA6CF921F762E4F50000                                                                                                                   NULL                                                                                                                             CONNECT SQL                                                                                                                     
NTDOMAIN\HPVSP16OOS1$                                                                                                            0x010500000000000515000000586BB3028F0BDA6CF921F762CDEE0000                                                                                                                   NULL                                                                                                                             CONNECT SQL                                                                                                                     
NTDOMAIN\HPVSP16OOS2$                                                                                                            0x010500000000000515000000586BB3028F0BDA6CF921F762E5F50000                                                                                                                   NULL                                                                                                                             CONNECT SQL                                                                                                                     
NTDOMAIN\HPVSP16WEB1$                                                                                                            0x010500000000000515000000586BB3028F0BDA6CF921F7628AF20000                                                                                                                   NULL                                                                                                                             CONNECT SQL                                                                                                                     
NTDOMAIN\HPVSP16WEB2$                                                                                                            0x010500000000000515000000586BB3028F0BDA6CF921F7625AFA0000                                                                                                                   NULL                                                                                                                             CONNECT SQL                                                                                                                     
NTDOMAIN\L0O                                                                                                                     0x010500000000000515000000586BB3028F0BDA6CF921F762FEBC0000                                                                                                                   sysadmin                                                                                                                         CONNECT SQL                                                                                                                     
NTDOMAIN\SQL Admins                                                                                                              0x010500000000000515000000586BB3028F0BDA6CF921F7627A0D0000                                                                                                                   sysadmin                                                                                                                         CONNECT SQL                                                                                                                     
NTDOMAIN\svc_sp16.prd.c2wts                                                                                                      0x010500000000000515000000586BB3028F0BDA6CF921F76210FA0000                                                                                                                   NULL                                                                                                                             CONNECT SQL                                                                                                                     
NTDOMAIN\svc_sp16.prd.cache                                                                                                      0x010500000000000515000000586BB3028F0BDA6CF921F76214FA0000                                                                                                                   NULL                                                                                                                             CONNECT SQL                                                                                                                     
ntdomain\svc_sp16.prd.crawl                                                                                                      0x010500000000000515000000586BB3028F0BDA6CF921F76215FA0000                                                                                                                   NULL                                                                                                                             CONNECT SQL                                                                                                                     
NTDOMAIN\svc_sp16.prd.farm                                                                                                       0x010500000000000515000000586BB3028F0BDA6CF921F76216FA0000                                                                                                                   dbcreator                                                                                                                        CONTROL SERVER                                                                                                                  
NTDOMAIN\svc_sp16.prd.farm                                                                                                       0x010500000000000515000000586BB3028F0BDA6CF921F76216FA0000                                                                                                                   dbcreator                                                                                                                        CONNECT SQL                                                                                                                     
NTDOMAIN\svc_sp16.prd.farm                                                                                                       0x010500000000000515000000586BB3028F0BDA6CF921F76216FA0000                                                                                                                   dbcreator                                                                                                                        VIEW SERVER STATE                                                                                                               
NTDOMAIN\svc_sp16.prd.farm                                                                                                       0x010500000000000515000000586BB3028F0BDA6CF921F76216FA0000                                                                                                                   securityadmin                                                                                                                    CONTROL SERVER                                                                                                                  
NTDOMAIN\svc_sp16.prd.farm                                                                                                       0x010500000000000515000000586BB3028F0BDA6CF921F76216FA0000                                                                                                                   securityadmin                                                                                                                    CONNECT SQL                                                                                                                     
NTDOMAIN\svc_sp16.prd.farm                                                                                                       0x010500000000000515000000586BB3028F0BDA6CF921F76216FA0000                                                                                                                   securityadmin                                                                                                                    VIEW SERVER STATE                                                                                                               
NTDOMAIN\svc_sp16.prd.farm                                                                                                       0x010500000000000515000000586BB3028F0BDA6CF921F76216FA0000                                                                                                                   sysadmin                                                                                                                         CONTROL SERVER                                                                                                                  
NTDOMAIN\svc_sp16.prd.farm                                                                                                       0x010500000000000515000000586BB3028F0BDA6CF921F76216FA0000                                                                                                                   sysadmin                                                                                                                         CONNECT SQL                                                                                                                     
NTDOMAIN\svc_sp16.prd.farm                                                                                                       0x010500000000000515000000586BB3028F0BDA6CF921F76216FA0000                                                                                                                   sysadmin                                                                                                                         VIEW SERVER STATE                                                                                                               
NTDOMAIN\svc_sp16.prd.install                                                                                                    0x010500000000000515000000586BB3028F0BDA6CF921F76217FA0000                                                                                                                   sysadmin                                                                                                                         CONNECT SQL                                                                                                                     
NTDOMAIN\svc_sp16.prd.pivot                                                                                                      0x010500000000000515000000586BB3028F0BDA6CF921F76218FA0000                                                                                                                   NULL                                                                                                                             CONNECT SQL                                                                                                                     
NTDOMAIN\svc_sp16.prd.svcs                                                                                                       0x010500000000000515000000586BB3028F0BDA6CF921F7621EFA0000                                                                                                                   NULL                                                                                                                             CONNECT SQL                                                                                                                     
NTDOMAIN\svc_sp16.prd.webpool                                                                                                    0x010500000000000515000000586BB3028F0BDA6CF921F7621CFA0000                                                                                                                   NULL                                                                                                                             CONNECT SQL                                                                                                                     
NTDOMAIN\svc_sp16.prd.wf                                                                                                         0x010500000000000515000000586BB3028F0BDA6CF921F7621BFA0000                                                                                                                   NULL                                                                                                                             CONNECT SQL                                                                                                                     
NTDOMAIN\svc_sqldbengine                                                                                                         0x010500000000000515000000586BB3028F0BDA6CF921F76205E50000                                                                                                                   NULL                                                                                                                             CONNECT SQL                                                                                                                     
NTDOMAIN\svc_sqldbengine                                                                                                         0x010500000000000515000000586BB3028F0BDA6CF921F76205E50000                                                                                                                   NULL                                                                                                                             CONNECT                                                                                                                         
NTDOMAIN\thepulse.prod.cardio                                                                                                    0x010500000000000515000000586BB3028F0BDA6CF921F76250AC0000                                                                                                                   NULL                                                                                                                             CONNECT SQL                                                                                                                     
