EncryptTest                                                                                                                      0xEAE3F8FB7195834FAA65EAD4BD91095F                                                                                                                                           NULL                                                                                                                             CONNECT SQL                                                                                                                     
NTDOMAIN\SQL Admins                                                                                                              0x010500000000000515000000586BB3028F0BDA6CF921F7627A0D0000                                                                                                                   sysadmin                                                                                                                         CONNECT SQL                                                                                                                     
NTDOMAIN\svc_isoft_intg                                                                                                          0x010500000000000515000000586BB3028F0BDA6CF921F762BBC20000                                                                                                                   NULL                                                                                                                             CONNECT SQL                                                                                                                     
NTDOMAIN\svc_isoft_rlse                                                                                                          0x010500000000000515000000586BB3028F0BDA6CF921F762BCC20000                                                                                                                   NULL                                                                                                                             CONNECT SQL                                                                                                                     
NTDOMAIN\svc_sqldbengine                                                                                                         0x010500000000000515000000586BB3028F0BDA6CF921F76205E50000                                                                                                                   NULL                                                                                                                             CONNECT SQL                                                                                                                     
NTDOMAIN\svc_sqldbengine                                                                                                         0x010500000000000515000000586BB3028F0BDA6CF921F76205E50000                                                                                                                   NULL                                                                                                                             CONNECT                                                                                                                         
