CDUser                                                                                                                           0x061706C547F3B14FA0FF6A346B08C1B8                                                                                                                                           NULL                                                                                                                             CONNECT SQL                                                                                                                     
NTDOMAIN\CMSUser_rlse                                                                                                            0x010500000000000515000000586BB3028F0BDA6CF921F762C9B60000                                                                                                                   NULL                                                                                                                             CONNECT SQL                                                                                                                     
NTDOMAIN\SQL Admins                                                                                                              0x010500000000000515000000586BB3028F0BDA6CF921F7627A0D0000                                                                                                                   sysadmin                                                                                                                         CONNECT SQL                                                                                                                     
NTDOMAIN\svc_sqldbengine                                                                                                         0x010500000000000515000000586BB3028F0BDA6CF921F76205E50000                                                                                                                   NULL                                                                                                                             CONNECT SQL                                                                                                                     
NTDOMAIN\svc_sqldbengine                                                                                                         0x010500000000000515000000586BB3028F0BDA6CF921F76205E50000                                                                                                                   NULL                                                                                                                             CONNECT                                                                                                                         
