DEV\bwdbu                                                                                                                        0x0105000000000005150000000D744AFD73D382AA6408B7059F040000                                                                                                                   NULL                                                                                                                             CONNECT SQL                                                                                                                     
DEV\CMSUser_intg                                                                                                                 0x0105000000000005150000000D744AFD73D382AA6408B70541100000                                                                                                                   NULL                                                                                                                             CONNECT SQL                                                                                                                     
DEV\CMSUser_sit                                                                                                                  0x0105000000000005150000000D744AFD73D382AA6408B70542100000                                                                                                                   NULL                                                                                                                             CONNECT SQL                                                                                                                     
DEV\EBS-DB-READ-INTG                                                                                                             0x0105000000000005150000000D744AFD73D382AA6408B7053B100000                                                                                                                   NULL                                                                                                                             CONNECT SQL                                                                                                                     
DEV\EBS-DB-READ-SIT                                                                                                              0x0105000000000005150000000D744AFD73D382AA6408B7053A100000                                                                                                                   NULL                                                                                                                             CONNECT SQL                                                                                                                     
DEV\EBS-DEV                                                                                                                      0x0105000000000005150000000D744AFD73D382AA6408B705F90F0000                                                                                                                   NULL                                                                                                                             CONNECT SQL                                                                                                                     
dev\htvcmsapp1$                                                                                                                  0x0105000000000005150000000D744AFD73D382AA6408B705FA0E0000                                                                                                                   NULL                                                                                                                             CONNECT SQL                                                                                                                     
dev\htvcmsapp4$                                                                                                                  0x0105000000000005150000000D744AFD73D382AA6408B705740F0000                                                                                                                   NULL                                                                                                                             CONNECT SQL                                                                                                                     
dev\htvcmssit2$                                                                                                                  0x0105000000000005150000000D744AFD73D382AA6408B70568110000                                                                                                                   NULL                                                                                                                             CONNECT SQL                                                                                                                     
DEV\MIS_DB_Access_DEVL_R                                                                                                         0x0105000000000005150000000D744AFD73D382AA6408B705C4090000                                                                                                                   NULL                                                                                                                             CONNECT SQL                                                                                                                     
DEV\msqlcon                                                                                                                      0x0105000000000005150000000D744AFD73D382AA6408B70507050000                                                                                                                   NULL                                                                                                                             CONNECT SQL                                                                                                                     
DEV\MYHBF-DB-READ-DEV                                                                                                            0x0105000000000005150000000D744AFD73D382AA6408B70519110000                                                                                                                   NULL                                                                                                                             CONNECT SQL                                                                                                                     
DEV\SQL Admins                                                                                                                   0x0105000000000005150000000D744AFD73D382AA6408B70575100000                                                                                                                   sysadmin                                                                                                                         CONNECT SQL                                                                                                                     
DEV\svc_ClaimSub_WebINTG                                                                                                         0x0105000000000005150000000D744AFD73D382AA6408B7055E120000                                                                                                                   NULL                                                                                                                             CONNECT SQL                                                                                                                     
DEV\svc_ClaimSub_WebSIT2                                                                                                         0x0105000000000005150000000D744AFD73D382AA6408B70542120000                                                                                                                   NULL                                                                                                                             CONNECT SQL                                                                                                                     
DEV\svc_ClaimSub_WebSIT3                                                                                                         0x0105000000000005150000000D744AFD73D382AA6408B70545120000                                                                                                                   NULL                                                                                                                             CONNECT SQL                                                                                                                     
DEV\svc_ClaimSub_WrkDEV                                                                                                          0x0105000000000005150000000D744AFD73D382AA6408B705AD120000                                                                                                                   NULL                                                                                                                             CONNECT SQL                                                                                                                     
DEV\svc_ClaimSub_WrkINTG                                                                                                         0x0105000000000005150000000D744AFD73D382AA6408B7055D120000                                                                                                                   NULL                                                                                                                             CONNECT SQL                                                                                                                     
DEV\svc_ClaimSub_WrkSIT2                                                                                                         0x0105000000000005150000000D744AFD73D382AA6408B70543120000                                                                                                                   NULL                                                                                                                             CONNECT SQL                                                                                                                     
DEV\svc_ClaimSub_WrkSIT3                                                                                                         0x0105000000000005150000000D744AFD73D382AA6408B70546120000                                                                                                                   NULL                                                                                                                             CONNECT SQL                                                                                                                     
DEV\svc_DEVHios                                                                                                                  0x0105000000000005150000000D744AFD73D382AA6408B705AC120000                                                                                                                   NULL                                                                                                                             CONNECT SQL                                                                                                                     
DEV\svc_ebsapp_dev                                                                                                               0x0105000000000005150000000D744AFD73D382AA6408B705D20F0000                                                                                                                   NULL                                                                                                                             CONNECT SQL                                                                                                                     
DEV\svc_ebsapp_intg                                                                                                              0x0105000000000005150000000D744AFD73D382AA6408B705A00F0000                                                                                                                   NULL                                                                                                                             CONNECT SQL                                                                                                                     
DEV\svc_ebsapp_sit                                                                                                               0x0105000000000005150000000D744AFD73D382AA6408B7059F0F0000                                                                                                                   NULL                                                                                                                             CONNECT SQL                                                                                                                     
DEV\svc_ebsweb_dev                                                                                                               0x0105000000000005150000000D744AFD73D382AA6408B705D30F0000                                                                                                                   NULL                                                                                                                             CONNECT SQL                                                                                                                     
DEV\svc_ebsweb_intg                                                                                                              0x0105000000000005150000000D744AFD73D382AA6408B705A20F0000                                                                                                                   NULL                                                                                                                             CONNECT SQL                                                                                                                     
DEV\svc_ebsweb_sit                                                                                                               0x0105000000000005150000000D744AFD73D382AA6408B705A10F0000                                                                                                                   NULL                                                                                                                             CONNECT SQL                                                                                                                     
DEV\svc_INTG_MassTransit                                                                                                         0x0105000000000005150000000D744AFD73D382AA6408B705A8120000                                                                                                                   NULL                                                                                                                             CONNECT SQL                                                                                                                     
DEV\svc_INTGHios                                                                                                                 0x0105000000000005150000000D744AFD73D382AA6408B70577120000                                                                                                                   NULL                                                                                                                             CONNECT SQL                                                                                                                     
DEV\svc_INTGPricing                                                                                                              0x0105000000000005150000000D744AFD73D382AA6408B70500130000                                                                                                                   NULL                                                                                                                             CONNECT SQL                                                                                                                     
DEV\svc_intgwebcacheapi                                                                                                          0x0105000000000005150000000D744AFD73D382AA6408B705CF110000                                                                                                                   NULL                                                                                                                             CONNECT SQL                                                                                                                     
DEV\svc_intgwebcachesvc                                                                                                          0x0105000000000005150000000D744AFD73D382AA6408B705D0110000                                                                                                                   NULL                                                                                                                             CONNECT SQL                                                                                                                     
DEV\svc_SIT2_MassTransit                                                                                                         0x0105000000000005150000000D744AFD73D382AA6408B705A6120000                                                                                                                   NULL                                                                                                                             CONNECT SQL                                                                                                                     
DEV\svc_SIT2Hios                                                                                                                 0x0105000000000005150000000D744AFD73D382AA6408B70575120000                                                                                                                   NULL                                                                                                                             CONNECT SQL                                                                                                                     
DEV\svc_SIT2Pricing                                                                                                              0x0105000000000005150000000D744AFD73D382AA6408B705FE120000                                                                                                                   NULL                                                                                                                             CONNECT SQL                                                                                                                     
DEV\svc_SIT3_MassTransit                                                                                                         0x0105000000000005150000000D744AFD73D382AA6408B705A7120000                                                                                                                   NULL                                                                                                                             CONNECT SQL                                                                                                                     
DEV\svc_SIT3Hios                                                                                                                 0x0105000000000005150000000D744AFD73D382AA6408B70576120000                                                                                                                   NULL                                                                                                                             CONNECT SQL                                                                                                                     
DEV\svc_SIT3Pricing                                                                                                              0x0105000000000005150000000D744AFD73D382AA6408B705FF120000                                                                                                                   NULL                                                                                                                             CONNECT SQL                                                                                                                     
DEV\svc_sitwebcacheapi                                                                                                           0x0105000000000005150000000D744AFD73D382AA6408B705D2110000                                                                                                                   NULL                                                                                                                             CONNECT SQL                                                                                                                     
DEV\svc_sitwebcachesvc                                                                                                           0x0105000000000005150000000D744AFD73D382AA6408B705D3110000                                                                                                                   NULL                                                                                                                             CONNECT SQL                                                                                                                     
DEV\svc_sqldbengine                                                                                                              0x0105000000000005150000000D744AFD73D382AA6408B705FA110000                                                                                                                   NULL                                                                                                                             CONNECT SQL                                                                                                                     
DEV\svc_sqldbengine                                                                                                              0x0105000000000005150000000D744AFD73D382AA6408B705FA110000                                                                                                                   NULL                                                                                                                             CONNECT                                                                                                                         
DevEbsAdmin                                                                                                                      0x5DA36C8012BE7D46B760FE2FADEB5095                                                                                                                                           NULL                                                                                                                             CONNECT SQL                                                                                                                     
GCT                                                                                                                              0xBE97F62EBE78334484E43541AD7E1A2C                                                                                                                                           NULL                                                                                                                             CONNECT SQL                                                                                                                     
msqlcon                                                                                                                          0xC70C17B90F9DD64E96527FBD5A60DA3F                                                                                                                                           sysadmin                                                                                                                         CONNECT SQL                                                                                                                     
MyHbfLogs                                                                                                                        0x06DCDE35C5427E4EB76AF268244BA148                                                                                                                                           NULL                                                                                                                             CONNECT SQL                                                                                                                     
RDSReadEBS                                                                                                                       0x67E6949F880B754CA3A055DAA298815D                                                                                                                                           NULL                                                                                                                             CONNECT SQL                                                                                                                     
SqlIntgWebApps                                                                                                                   0x95B0A372DB08D64DA35030B70587DAA6                                                                                                                                           NULL                                                                                                                             CONNECT SQL                                                                                                                     
svc_HBFClaiming_Read                                                                                                             0x941E2DA416076C40969EA49175AD0CAB                                                                                                                                           NULL                                                                                                                             CONNECT SQL                                                                                                                     
svc_MyHBFLogs_intg                                                                                                               0x0C5E5EC3E461EB45B6568C0D935D4042                                                                                                                                           NULL                                                                                                                             CONNECT SQL                                                                                                                     
svc_MyHBFLogs_sit                                                                                                                0x6EBE476D4BD4E64789A26F901685D619                                                                                                                                           NULL                                                                                                                             CONNECT SQL                                                                                                                     
WebDevRead                                                                                                                       0x126C57B5F5E9C343A3808E8B8B52C58B                                                                                                                                           NULL                                                                                                                             CONNECT SQL                                                                                                                     
WebDevWrite                                                                                                                      0x59D77F7B5435DB43ADB6E8E0851EC9F0                                                                                                                                           NULL                                                                                                                             CONNECT SQL                                                                                                                     
