DEV\CMSUser_Dev                                                                                                                  0x0105000000000005150000000D744AFD73D382AA6408B7059F120000                                                                                                                   NULL                                                                                                                             CONNECT SQL                                                                                                                     
DEV\CMSUser_intg                                                                                                                 0x0105000000000005150000000D744AFD73D382AA6408B70541100000                                                                                                                   NULL                                                                                                                             CONNECT SQL                                                                                                                     
DEV\CMSUser_sit                                                                                                                  0x0105000000000005150000000D744AFD73D382AA6408B70542100000                                                                                                                   NULL                                                                                                                             CONNECT SQL                                                                                                                     
DEV\msqlcon                                                                                                                      0x0105000000000005150000000D744AFD73D382AA6408B70507050000                                                                                                                   NULL                                                                                                                             NULL                                                                                                                            
DEV\SQL Admins                                                                                                                   0x0105000000000005150000000D744AFD73D382AA6408B70575100000                                                                                                                   sysadmin                                                                                                                         CONNECT SQL                                                                                                                     
DEV\svc_CMSUser_Dev                                                                                                              0x0105000000000005150000000D744AFD73D382AA6408B705E1120000                                                                                                                   NULL                                                                                                                             CONNECT ANY DATABASE                                                                                                            
DEV\svc_CMSUser_Dev                                                                                                              0x0105000000000005150000000D744AFD73D382AA6408B705E1120000                                                                                                                   NULL                                                                                                                             CONNECT SQL                                                                                                                     
DEV\svc_sqldbengine                                                                                                              0x0105000000000005150000000D744AFD73D382AA6408B705FA110000                                                                                                                   NULL                                                                                                                             CONNECT SQL                                                                                                                     
DEV\svc_sqldbengine                                                                                                              0x0105000000000005150000000D744AFD73D382AA6408B705FA110000                                                                                                                   NULL                                                                                                                             CONNECT                                                                                                                         
msqlcon                                                                                                                          0x8522418D82869C4D9771EA44D0504380                                                                                                                                           sysadmin                                                                                                                         CONNECT SQL                                                                                                                     
WebDevRead                                                                                                                       0xE1E18D7AFDA7434FA709648696DF5FE6                                                                                                                                           NULL                                                                                                                             CONNECT SQL                                                                                                                     
