NTDOMAIN\BIS                                                                                                                     0x010500000000000515000000586BB3028F0BDA6CF921F76298150000                                                                                                                   NULL                                                                                                                             CONNECT SQL                                                                                                                     
NTDOMAIN\C3S                                                                                                                     0x010500000000000515000000586BB3028F0BDA6CF921F762C2960000                                                                                                                   NULL                                                                                                                             CONNECT SQL                                                                                                                     
NTDOMAIN\CASD_DB_READ                                                                                                            0x010500000000000515000000586BB3028F0BDA6CF921F7624DF90000                                                                                                                   NULL                                                                                                                             CONNECT SQL                                                                                                                     
NTDOMAIN\DataServicesandIntegration                                                                                              0x010500000000000515000000586BB3028F0BDA6CF921F762F5020100                                                                                                                   NULL                                                                                                                             CONNECT SQL                                                                                                                     
NTDOMAIN\GMF-DB-READ-RLSE                                                                                                        0x010500000000000515000000586BB3028F0BDA6CF921F76219C90000                                                                                                                   NULL                                                                                                                             CONNECT SQL                                                                                                                     
NTDOMAIN\HEL                                                                                                                     0x010500000000000515000000586BB3028F0BDA6CF921F762835B0000                                                                                                                   NULL                                                                                                                             CONNECT SQL                                                                                                                     
NTDOMAIN\J7K                                                                                                                     0x010500000000000515000000586BB3028F0BDA6CF921F762D40D0100                                                                                                                   NULL                                                                                                                             CONNECT SQL                                                                                                                     
NTDOMAIN\milsfadmin_rlse                                                                                                         0x010500000000000515000000586BB3028F0BDA6CF921F762515F0000                                                                                                                   NULL                                                                                                                             CONNECT SQL                                                                                                                     
NTDOMAIN\misassrv_prod                                                                                                           0x010500000000000515000000586BB3028F0BDA6CF921F762475F0000                                                                                                                   NULL                                                                                                                             CONNECT SQL                                                                                                                     
NTDOMAIN\misrvadmin_prod                                                                                                         0x010500000000000515000000586BB3028F0BDA6CF921F762465F0000                                                                                                                   NULL                                                                                                                             CONNECT SQL                                                                                                                     
NTDOMAIN\misrvadmin_rlse                                                                                                         0x010500000000000515000000586BB3028F0BDA6CF921F7624F5F0000                                                                                                                   NULL                                                                                                                             CONNECT SQL                                                                                                                     
NTDOMAIN\NDD                                                                                                                     0x010500000000000515000000586BB3028F0BDA6CF921F762884B0000                                                                                                                   NULL                                                                                                                             CONNECT SQL                                                                                                                     
NTDOMAIN\SASBIRLSE                                                                                                               0x010500000000000515000000586BB3028F0BDA6CF921F762265F0000                                                                                                                   NULL                                                                                                                             CONNECT SQL                                                                                                                     
NTDOMAIN\SASDIPROD                                                                                                               0x010500000000000515000000586BB3028F0BDA6CF921F762235F0000                                                                                                                   NULL                                                                                                                             CONNECT SQL                                                                                                                     
NTDOMAIN\SASDIRLSE                                                                                                               0x010500000000000515000000586BB3028F0BDA6CF921F762215F0000                                                                                                                   NULL                                                                                                                             CONNECT SQL                                                                                                                     
NTDOMAIN\SQL Admins                                                                                                              0x010500000000000515000000586BB3028F0BDA6CF921F7627A0D0000                                                                                                                   sysadmin                                                                                                                         CONNECT SQL                                                                                                                     
NTDOMAIN\svc_saslsfadmin_dev                                                                                                     0x010500000000000515000000586BB3028F0BDA6CF921F762A3BD0000                                                                                                                   NULL                                                                                                                             CONNECT SQL                                                                                                                     
NTDOMAIN\svc_saslsfadmin_prod                                                                                                    0x010500000000000515000000586BB3028F0BDA6CF921F762A2BD0000                                                                                                                   NULL                                                                                                                             CONNECT SQL                                                                                                                     
NTDOMAIN\svc_saslsfadmin_rlse                                                                                                    0x010500000000000515000000586BB3028F0BDA6CF921F762B1BD0000                                                                                                                   NULL                                                                                                                             CONNECT SQL                                                                                                                     
NTDOMAIN\svc_saslsfadmin_SIT                                                                                                     0x010500000000000515000000586BB3028F0BDA6CF921F762F4FC0000                                                                                                                   NULL                                                                                                                             CONNECT SQL                                                                                                                     
NTDOMAIN\svc_sp16.prd.crawl                                                                                                      0x010500000000000515000000586BB3028F0BDA6CF921F76215FA0000                                                                                                                   NULL                                                                                                                             CONNECT SQL                                                                                                                     
NTDOMAIN\svc_sp16.prd.install                                                                                                    0x010500000000000515000000586BB3028F0BDA6CF921F76217FA0000                                                                                                                   NULL                                                                                                                             CONNECT SQL                                                                                                                     
NTDOMAIN\svc_sqldbengine                                                                                                         0x010500000000000515000000586BB3028F0BDA6CF921F76205E50000                                                                                                                   NULL                                                                                                                             CONNECT SQL                                                                                                                     
NTDOMAIN\svc_sqldbengine                                                                                                         0x010500000000000515000000586BB3028F0BDA6CF921F76205E50000                                                                                                                   NULL                                                                                                                             CONNECT                                                                                                                         
